:1000000064002500A304040A6400A304AF0BA30446
:02001000CC0B17
:10035E00080C0200000C0500010C2500A30407097F
:10036E00A304020C2500A3040709A304040C250012
:10037E00A3040709A304080C2500A3040709A3047A
:10038E006500A3040709A304B30BC80C2700000CD7
:10039E0028006E0C2900000C2A00640C2B00000CA7
:1003AE002C00010C3C007D001C02AB001D0203075B
:1003BE00EC00AC000B020C014307D80B010C3C0007
:1003CE007D001C02A9001D020307EA00AA00090213
:1003DE000A014307D40B010C3C007D001C02A70050
:1003EE001D020307E800A8000702080143060008E3
:0203FE00D00B22
:00000001FF
